{
  "contractName": "StoriesContract",
  "abi": [
    {
      "anonymous": false,
      "inputs": [
        {
          "indexed": false,
          "name": "title",
          "type": "string"
        },
        {
          "indexed": false,
          "name": "body",
          "type": "string"
        },
        {
          "indexed": false,
          "name": "id",
          "type": "uint256"
        }
      ],
      "name": "StoryCreated",
      "type": "event"
    },
    {
      "constant": false,
      "inputs": [
        {
          "name": "title",
          "type": "string"
        },
        {
          "name": "body",
          "type": "string"
        }
      ],
      "name": "createStory",
      "outputs": [],
      "payable": true,
      "stateMutability": "payable",
      "type": "function"
    },
    {
      "constant": true,
      "inputs": [],
      "name": "getNumberNodes",
      "outputs": [
        {
          "name": "",
          "type": "uint256"
        }
      ],
      "payable": false,
      "stateMutability": "view",
      "type": "function"
    }
  ],
  "bytecode": "0x608060405234801561001057600080fd5b5061045a806100206000396000f30060806040526004361061004c576000357c0100000000000000000000000000000000000000000000000000000000900463ffffffff1680638ec66994146100515780639151d4031461007c575b600080fd5b34801561005d57600080fd5b5061006661011e565b6040518082815260200191505060405180910390f35b61011c600480360381019080803590602001908201803590602001908080601f0160208091040260200160405190810160405280939291908181526020018383808284378201915050505050509192919290803590602001908201803590602001908080601f0160208091040260200160405190810160405280939291908181526020018383808284378201915050505050509192919290505050610128565b005b6000600154905090565b61013061034a565b60003411151561013f57600080fd5b60806040519081016040528060015481526020018481526020018381526020013373ffffffffffffffffffffffffffffffffffffffff16815250905080600080836000015181526020019081526020016000206000820151816000015560208201518160010190805190602001906101b8929190610389565b5060408201518160020190805190602001906101d5929190610389565b5060608201518160030160006101000a81548173ffffffffffffffffffffffffffffffffffffffff021916908373ffffffffffffffffffffffffffffffffffffffff1602179055509050506001600081548092919060010191905055507fa6e5887877c2bef9106e4a302f76ca20bb65c9ef3d718912ddc96165fed175458383600154604051808060200180602001848152602001838103835286818151815260200191508051906020019080838360005b838110156102a2578082015181840152602081019050610287565b50505050905090810190601f1680156102cf5780820380516001836020036101000a031916815260200191505b50838103825285818151815260200191508051906020019080838360005b838110156103085780820151818401526020810190506102ed565b50505050905090810190601f1680156103355780820380516001836020036101000a031916815260200191505b509550505050505060405180910390a1505050565b608060405190810160405280600081526020016060815260200160608152602001600073ffffffffffffffffffffffffffffffffffffffff1681525090565b828054600181600116156101000203166002900490600052602060002090601f016020900481019282601f106103ca57805160ff19168380011785556103f8565b828001600101855582156103f8579182015b828111156103f75782518255916020019190600101906103dc565b5b5090506104059190610409565b5090565b61042b91905b8082111561042757600081600090555060010161040f565b5090565b905600a165627a7a72305820a4ea3a3713d23e2f19f566412c13c5e1b26278461e532f26f9dc148ad25f485f0029",
  "source": "pragma solidity  ^0.4.19;\n\ncontract StoriesContract {\n\n  event StoryCreated(string title, string body, uint id);\n\n  struct StoryNode {\n    uint id;\n    string title;\n    string body;\n    address owner;\n    mapping(uint => StoryNode) childNodes;\n  }\n\n  // story id maps to start node\n  mapping(uint => StoryNode) stories;\n\n  // total nr of stories\n  uint nr_nodes;\n\n  /**\n  *\n  *\n  *\n  */\n  function createStory(string title, string body) public payable {\n    require(msg.value > 0);\n\n    StoryNode memory newNode = StoryNode(nr_nodes, title, body, msg.sender);\n\n    stories[newNode.id] = newNode;\n\n    nr_nodes++;\n\n    emit StoryCreated(title, body, nr_nodes);\n  }\n\n  /**\n  *\n  *\n  */\n  function getNumberNodes() public view returns(uint) {\n      return nr_nodes;\n  }\n}\n",
  "sourcePath": "/Users/bruno/Downloads/gisu/truffle/contracts/StoriesContract.sol",
  "compiler": {
    "name": "solc",
    "version": "0.4.24+commit.e67f0147.Emscripten.clang"
  },
  "schemaVersion": "2.0.1",
  "updatedAt": "2018-07-02T14:34:36.149Z"
}